:020000040800F2
:1000000000800020D11A0008DD020008E10200088B
:10001000E5020008E9020008ED0200080000000007
:10002000000000000000000000000000F1020008D5
:10003000F502000800000000F9020008FD020008B7
:10004000191B0008191B0008191B0008191B0008C0
:10005000191B0008191B0008191B0008191B0008B0
:10006000191B0008191B0008191B0008191B0008A0
:10007000191B0008191B0008191B0008191B000890
:10008000191B0008191B0008191B0008191B000880
:10009000191B0008191B0008191B0008191B000870
:1000A00000000000191B0008191B0008191B00089C
:1000B000191B0008191B0008191B0008191B000850
:1000C000191B0008191B0008191B0008191B000840
:1000D000191B0008191B000805030008191B00085C
:1000E000191B0008191B0008191B0008191B000820
:1000F000191B0008000000000000000000000000C4
:1001000000000000000000000000000000000000EF
:1001100000000000000000000000000000000000DF
:1001200000000000000000000000000000000000CF
:0C01300000000000000000005FF808F173
:10013C0010B5054C237833B9044B13B10448AFF315
:10014C0000800123237010BD70000020000000000F
:10015C00BC2A0008084B10B51BB108490848AFF37E
:10016C0000800848036803B910BD074B002BFBD077
:10017C00BDE81040184700BF0000000074000020CC
:10018C00BC2A0008700000200000000030B593B0BD
:10019C003422002105A801F0E1FC00240094019414
:1001AC000294039404940E4A136823F4C05343F44A
:1001BC00006313600223059301250895102309930E
:1001CC000E9405A800F056FD0F23009301950294A0
:1001DC00039404942146684601F018F813B030BD1E
:1001EC000070004008B500F0C5FCFFF7CFFF01F030
:1001FC00B5FA01F015FB01F099FB01F0B1FB0022FF
:10020C004FF480511F4801F0EFF91F4C00220121DF
:10021C00204601F0E9F900220221204601F0E4F920
:10022C001A4C2146422001F03DFC2178122903D0C2
:10023C00174801F09BFC02E0164801F097FC01F016
:10024C0037FC0146144801F091FC0E4C01224FF48E
:10025C008051204601F0C8F94FF47A7000F0AAFCE6
:10026C000E4801F0F5FC00224FF48051204601F0BD
:10027C00BBF94FF47A7000F09DFC094801F0E8FCE2
:10028C00E3E700BF00040240000002408C000020A5
:10029C00D42A0008002B00082C2B0008482B00083F
:1002AC00602B000830B4002408E0074B1B6813F0E7
:1002BC00400FFAD00D5D044B5D6001349442F4DBC9
:1002CC00104630BC704700BF00380140704700BF7B
:1002DC00704700BFFEE700BFFEE700BFFEE700BFB0
:1002EC00FEE700BF704700BF704700BF704700BFFC
:1002FC0008B500F04DFC08BD08B5024800F07CFBC9
:10030C0008BD00BF3801002084B00F4B5A6A42F080
:10031C0000425A625A6A02F000420192019A1A6A29
:10032C0042F001021A621A6A02F001020292029A67
:10033C005A6A42F080525A625B6A03F0805303930C
:10034C00039B04B0704700BF00380240F8B5054667
:10035C000F4616461C4634E0B4F1FF3F31D000F096
:10036C0023FC069BC01A844200D954BB2A685368EC
:10037C0023F0E00353606B68B3F5827F0BD1AB685D
:10038C00B3F5004F02D0B3F5806F04D12A6813681F
:10039C0023F040031360AB6AB3F5005F09D12A6800
:1003AC00136823F4005313602A68136843F4005352
:1003BC001360012385F85130002385F85030032059
:1003CC00F8BD2B689B6837EA03030CBF012300239D
:1003DC00B342C1D10020F8BD10B582B004464068CC
:1003EC00B0F5827F0ED100920B4600228021204670
:1003FC00FFF7ACFF0346D0B1636D43F02003636598
:10040C00032314E094F85100C0B205280ED10092D9
:10041C000B46002201212046FFF798FF034630B11E
:10042C00636D43F020036365032300E0002318464B
:10043C0002B010BD002835D010B5044600238362ED
:10044C0090F8513013F0FF0F04D1002380F8503096
:10045C0001F006FA022384F851302268136823F065
:10046C004003136021686268A3681A43E3681A4367
:10047C0023691A4363691A43A36903F40073134392
:10048C00E2691343226A1343A26A1A430A60226880
:10049C00638B03F00403536000206065012384F830
:1004AC00513010BD012070472DE9F04383B00A9DF7
:1004BC0090F85040012C00F00F811E4690460F46DC
:1004CC000446012380F8503000F06EFB814694F80E
:1004DC005130DBB26268012B0AD0B2F5827F40F05A
:1004EC00E180A268002A40F0DF80042B40F0DE801F
:1004FC00002F00F0DD80B8F1000F00F0DB80002E43
:10050C0000F0DA8094F85130DBB2042B02D00523D2
:10051C0084F8513000236365C4F83880E687A687D9
:10052C002763E686A6862364636423681A6812F040
:10053C00400F03D11A6842F040021A60E368B3F529
:10054C00006F4CD163680BB1012E0BD12368226B69
:10055C001288DA60236B02332363E38E9BB2013B78
:10056C009BB2E386012631E023689A6812F0020FF1
:10057C000FD0E28E92B262B15EB1226B1288DA6059
:10058C00236B02332363E38E9BB2013B9BB2E38666
:10059C00002623689A6812F0010F0ED0E28F92B2F7
:1005AC005AB1A26BDB681380A36B0233A363E38F96
:1005BC009BB2013B9BB2E387012600F0F5FAC9EB35
:1005CC000000A84202D3B5F1FF3F77D1E38E9BB276
:1005DC00002BC9D1E38F9BB2002BC5D14DE06368D2
:1005EC000BB1012E40D12368226B12781A73236B46
:1005FC0001332363E38E9BB2013B9BB2E38633E072
:10060C0023689A6812F0020F0FD0E28E92B262B198
:10061C005EB1226B12781A73236B01332363E38E62
:10062C009BB2013B9BB2E386002623689A6812F0CA
:10063C00010F0ED0E28F92B25AB1A26BDB6813702D
:10064C00A36B0133A363E38F9BB2013B9BB2E387A4
:10065C00012600F0A9FAC9EB0000854202D8B5F1D9
:10066C00FF3F2DD10DB92DE00126E38E9BB2002B5F
:10067C00C6D1E38F9BB2002BC2D14A4629462046F5
:10068C00FFF7AAFE18B12023636501201DE0A368C3
:10069C00D3B9002001902368DA6801929B6801931A
:1006AC00019B12E0022010E002200EE002200CE080
:1006BC0001200AE0012008E0012006E0032004E00C
:1006CC00032002E0032000E00020012384F85130D5
:1006DC00002384F8503000E0022003B0BDE8F08322
:1006EC000268D36823F49073D3600268536923F0D3
:1006FC0001035361202380F83A30704790F8393069
:10070C00DBB2212B2BD18368B3F5805F0FD1036A49
:10071C0002681B88C3F30803536003691BB9036A9F
:10072C000233036209E0036A0133036205E00268E5
:10073C00036A591C01621B785360C38C9BB2013B4A
:10074C009BB2C3846BB90268D36823F08003D36077
:10075C000268D36843F04003D36000207047022046
:10076C0070470020704700BF38B5044601680B691C
:10077C0023F44052C36813430B6181680369194326
:10078C0043691943C36919430068C26822F41643CC
:10079C0023F00C030B43C36021684B6923F44072B4
:1007AC00A36913434B61E369B3F5004F45D122684C
:1007BC00444B9A4220D100F035FE256800EB8000B6
:1007CC0000EB800061684900B0FBF1F13E4BA3FBEC
:1007DC0001025009642202FB1012D2003232A3FB38
:1007EC0002235B095A0002F4F87202EB001203F0C8
:1007FC0007031344AB6038BD00F004FE216800EB26
:10080C00800000EB800063685B00B0FBF3F02E4BC4
:10081C00A3FB00425409642202FB1402D2003232C0
:10082C00A3FB02235B095A0002F4F87202EB0412D8
:10083C0003F0070313448B6038BD2268214B9A42A6
:10084C001FD100F0EFFD216800EB800000EB800071
:10085C0063689B00B0FBF3F01B4BA3FB0024640903
:10086C00642202FB140212013232A3FB02235B0945
:10087C0003F0F00202EB041403F00F0323448B602B
:10088C0038BD00F0BFFD216800EB800000EB80005C
:10089C0063689B00B0FBF3F00B4BA3FB00246409D3
:1008AC00642202FB140212013232A3FB02235B0905
:1008BC0003F0F00202EB041403F00F0323448B60EB
:1008CC0038BD00BF003801401F85EB5168B310B52F
:1008DC00044690F8393013F0FF0F04D1002380F850
:1008EC00383001F057F8242384F839302268D36863
:1008FC0023F40053D3602046FFF736FF22681369B8
:10090C0023F4904313612268536923F02A03536143
:10091C002268D36843F40053D3600020E0632023A3
:10092C0084F8393084F83A3010BD0120704700BF8C
:10093C00704700BF08B50168CB6823F04003CB605B
:10094C00202380F83930FFF7F3FF002008BD00BFEB
:10095C00704700BF08B590F83A30DBB2222B44D177
:10096C008368B3F5805F13D1826A036943B9036866
:10097C005B68C3F308031380836A0233836218E055
:10098C0003685B68DBB21380836A0133836210E017
:10099C00036933B9836A5A1C8262026852681A70FE
:1009AC0007E0826A531C836203685B6803F07F0371
:1009BC001370C38D9BB2013B9BB2C385BBB902685C
:1009CC00D36823F02003D3600268D36823F48073C8
:1009DC00D3600268536923F001035361202380F82C
:1009EC003A30FFF7B5FF002008BD022008BD0020FB
:1009FC0008BD00BF704700BF10B5044602681368FD
:100A0C00D168526913F00F0009D113F0200F06D0F2
:100A1C0011F0200F03D02046FFF79CFF10BD0028DB
:100A2C0062D012F0010202D111F4907F5CD013F06D
:100A3C00010F06D011F4807F03D0E06B40F0010071
:100A4C00E06313F0040F04D01AB1E06B40F0020025
:100A5C00E06313F0020F04D01AB1E06B40F0040015
:100A6C00E06313F0080F04D01AB1E26B42F00802F5
:100A7C00E263E26B002A4AD013F0200F05D011F08C
:100A8C00200F02D02046FFF765FF23685B6903F057
:100A9C004003E26B12F0080F00D1FBB12046FFF7C8
:100AAC001FFE23685A6912F0400F13D05A6922F0C6
:100ABC0040025A61636B4BB1154A5A63606B00F08C
:100ACC0099FD20B3606B436B984710BD2046FFF730
:100ADC0091FF10BD2046FFF78DFF10BD2046FFF79C
:100AEC0089FF0023E36310BD13F0800F06D011F0D3
:100AFC00800F03D02046FFF701FE10BD13F0400F0E
:100B0C0005D011F0400F02D02046FFF713FF10BDA7
:100B1C00210B000808B5406A0023C385C384FFF786
:100B2C0069FF08BD104B1B68C3B110B504464FF4E8
:100B3C007A70B0FBF3F30D4A1068B0FBF3F000F0E1
:100B4C00D3FD68B90F2C0DD8002221464FF0FF3091
:100B5C0000F08AFD064B1C60002010BD0120704780
:100B6C00012010BD012010BD040000200800002051
:100B7C000000002008B5032000F064FD0020FFF702
:100B8C00D1FF18B9FFF7C0FB002008BD012008BD3C
:100B9C00034A1168034B1B680B441360704700BF7A
:100BAC009C00002004000020014B1868704700BF17
:100BBC009C00002038B50446FFF7F6FF0546B4F15B
:100BCC00FF3F02D0044B1B681C44FFF7EDFF401B9A
:100BDC008442FAD838BD00BF0400002082B0224BFA
:100BEC009B6813F0F00F23D11F4B5B6A13F0805FEF
:100BFC0004D01E4B1B6803F4C05311E01A4A536A0D
:100C0C0043F080535362536A03F080530193019B6A
:100C1C00164B1B6803F4C053516A21F0805151628A
:100C2C00B3F5C05F06D1B0F5404F05D0002104E00C
:100C3C00002102E0002100E0012121B10C4A1368DF
:100C4C0043F0040313600A4A136823F001030B43B7
:100C5C001360136803F00103994201D0012000E0F6
:100C6C00002002B0704700BF003802400070004006
:100C7C00003C0240002800F05482F0B583B00446DA
:100C8C00A74B9D6805F00C059E6806F4803603683A
:100C9C0013F0010F57D0082D02D00C2D09D146B1FD
:100CAC009F4B1B6813F4003F4DD06368002B4AD157
:100CBC0039E26368012B05D1994A136843F48033F8
:100CCC0013601FE04BB9964B1A6822F480321A60FD
:100CDC001A6822F480221A6014E0052B09D1904B7B
:100CEC001A6842F480221A601A6842F480321A6040
:100CFC0008E08B4B1A6822F480321A601A6822F4CE
:100D0C0080221A6063687BB1FFF74EFF074605E04F
:100D1C00FFF74AFFC01B642800F20782804B1B6858
:100D2C0013F4003FF4D00EE0FFF73EFF074605E05A
:100D3C00FFF73AFFC01B642800F2F981784B1B685F
:100D4C0013F4003FF4D1236813F0020F45D0042DA7
:100D5C0002D00C2D12D18EB9714B1B6813F0020FFF
:100D6C0003D0E368012B40F0E4816D4A536823F40F
:100D7C00F853216943EA012353602EE0E368D3B1B1
:100D8C000122684B1A60FFF70FFF064605E0FFF7DC
:100D9C000BFF801B022800F2CE81614B1B6813F005
:100DAC00020FF4D05E4A536823F4F853216943EAE6
:100DBC000123536011E000225A4B1A60FFF7F4FE36
:100DCC00064605E0FFF7F0FE801B022800F2B58115
:100DDC00534B1B6813F0020FF4D1236813F0100F60
:100DEC0000F08480002D4CD14D4B1B6813F4007F18
:100DFC0003D0A369002B00F0A281206A484B5B68EA
:100E0C0003F46043984213D9FFF7E8FE002840F042
:100E1C009881434A536823F46041236A0B4353601F
:100E2C00536823F07F43E16943EA0163536012E0A6
:100E3C003B4A536823F4604318435060536823F0D3
:100E4C007F43E16943EA01635360206AFFF7C6FE02
:100E5C00002840F07881236A5B0B5A1C4FF4004346
:100E6C0093402F4A9268C2F303122F498A5CD340F5
:100E7C002E4A13602E4B1868FFF754FE002835D00D
:100E8C0063E1A36903B301222A4B1A60FFF78CFEBE
:100E9C00064605E0FFF788FE801B022800F256810B
:100EAC001F4B1B6813F4007FF4D01D4A536823F4C6
:100EBC006041236A0B435360536823F07F43E1691D
:100ECC0043EA0163536011E000221A4B1A60FFF7EA
:100EDC006BFE064605E0FFF767FE801B022800F25A
:100EEC0037810F4B1B6813F4007FF4D1236813F088
:100EFC00080F35D063690BB301220F4B1A60FFF753
:100F0C0053FE064605E0FFF74FFE801B022800F259
:100F1C002181034B5B6B13F0020FF4D020E000BF78
:100F2C000038024000004742782B000808000020DF
:100F3C000000002020004742800647420022934BCD
:100F4C001A60FFF731FE064605E0FFF72DFE801B09
:100F5C00022800F201818E4B5B6B13F0020FF4D16F
:100F6C00236813F0040F7ED0894B5B6A13F0805F0B
:100F7C000BD1874B5A6A42F080525A625B6A03F07B
:100F8C0080530193019B012600E00026814B1B68D6
:100F9C0013F4807F13D17F4A136843F4807313607A
:100FAC00FFF702FE074605E0FFF7FEFDC01B6428B5
:100FBC0000F2D480774B1B6813F4807FF4D0A368C5
:100FCC00012B05D1724A536B43F4807353631FE0BA
:100FDC004BB96F4B5A6B22F480725A635A6B22F4E2
:100FEC0080625A6314E0052B09D1694B5A6B42F4A9
:100FFC0080625A635A6B42F480725A6308E0644B05
:10100C005A6B22F480725A635A6B22F480625A63D0
:10101C00A3688BB1FFF7C8FD074607E0FFF7C4FDD7
:10102C00C01B41F28833984200F29A80584B5B6B9C
:10103C0013F4007FF2D010E0FFF7B6FD074607E08F
:10104C00FFF7B2FDC01B41F28833984200F28A8050
:10105C004F4B5B6B13F4007FF2D126B14C4A536AB1
:10106C0023F080535362636A002B7DD00C2D43D048
:10107C00022B2ED10022484B1A60FFF795FD054636
:10108C0004E0FFF791FD401B02286FD8404B1B6812
:10109C0013F0007FF5D13E48836823F47D01A26AEA
:1010AC00E36A1343226B13430B43836001223A4BD5
:1010BC001A60FFF779FD044604E0FFF775FD001B8D
:1010CC00022855D8324B1B6813F0007FF5D0002056
:1010DC0059E00022304B1A60FFF766FD044604E02D
:1010EC00FFF762FD001B022844D8294B1B6813F044
:1010FC00007FF5D1002046E0012B3DD0244B9B68AE
:10110C0003F48031A26A914238D103F47012E16A7F
:10111C008A4235D103F44003226B934232D0012032
:10112C0031E00120704701202DE003202BE003204B
:10113C0029E0012027E0032025E0032023E0012003
:10114C0021E001201FE001201DE01CE003201AE03B
:10115C00032018E0032016E0032014E0032012E023
:10116C00032010E003200EE000200CE003200AE036
:10117C00032008E0032006E0012004E0012002E047
:10118C00012000E0002003B0F0BD00BF8006474204
:10119C00003802400070004060004742174B9B68CB
:1011AC0003F00C02082A27D00C2A03D0042A19D1E8
:1011BC0013487047C3F383421249885CC3F38153CD
:1011CC0001330E4A926812F4803F05D00E4A02FB9E
:1011DC0000F0B0FBF3F07047094A02FB00F0B0FBE3
:1011EC00F3F07047054B5868C0F3423001304FF4B0
:1011FC00004303FA00F07047034870470038024080
:10120C000024F400902B000800366E01002800F03A
:10121C00D28070B50546734B1B6803F001038B42FB
:10122C0012D2012904D16F4A136843F004031360EE
:10123C006C4A136823F001030B431360136803F02B
:10124C000103994240F0B9802B6813F0020F06D0CD
:10125C006548836823F0F002AB68134383600C4647
:10126C002B6813F0010F67D06B68022B05D15E4A17
:10127C00126812F4003F16D1A1E0032B05D15A4A93
:10128C00126812F0007F0ED19BE0012B05D1564A5B
:10129C00126812F0020F06D195E0534A126812F44C
:1012AC00007F00F0928050498A6822F003021343B9
:1012BC008B60FFF779FC06466B68022B0ED106E0BB
:1012CC00FFF772FC801B41F2883398427FD8464B63
:1012DC009B6803F00C03082BF2D12DE0032B0ED1ED
:1012EC0006E0FFF761FC801B41F28833984270D80E
:1012FC003D4B9B6803F00C030C2BF2D11CE0012B33
:10130C0015D106E0FFF750FC801B41F28833984260
:10131C0061D8354B9B6803F00C03042BF2D10BE026
:10132C00FFF742FC801B41F28833984255D82E4B74
:10133C009B6813F00C0FF3D12A4B1B6803F00103CD
:10134C009C4211D2012C04D1264A136843F00403A9
:10135C001360244A136823F00103234313601368BA
:10136C0003F001039C423AD12B6813F0040F06D012
:10137C001D498B6823F4E062EB6813438B602B6888
:10138C0013F0080F07D0184A936823F460532969A7
:10139C0043EAC1039360FFF701FF134B9B68C3F350
:1013AC000313124AD35CD840114B1860114B1868C8
:1013BC00FFF7B8FB70BD01207047012070BD012004
:1013CC0070BD012070BD012070BD012070BD0320D7
:1013DC0070BD032070BD032070BD032070BD0120C3
:1013EC0070BD00BF003C024000380240782B000862
:1013FC000800002000000020014B1868704700BF57
:10140C000800002008B5FFF7F7FF044B9B68C3F3F7
:10141C000223034AD35CD84008BD00BF0038024009
:10142C00882B000808B5FFF7E7FF044B9B68C3F354
:10143C00C223034AD35CD84008BD00BF0038024029
:10144C00882B0008F0B583B00023B6E001249C4043
:10145C00224000F0B1804D68022D01D0122D10D128
:10146C00DE08083650F826C003F00705AF000F253C
:10147C00BD402CEA050E0D69BD404EEA050540F84D
:10148C00265005685F000326BE40F64305EA060EAB
:10149C004D6805F00305BD404EEA050505604D6835
:1014AC0005F1FF3EBEF1010F03D9112D01D0122D14
:1014BC0010D1856806EA050ECD68BD404EEA0505DB
:1014CC008560456825EA04044D68C5F300159D4008
:1014DC0025434560C46826408C68BC403443C460D6
:1014EC004C6814F0805F67D0374C256A45F00105D5
:1014FC002562246A04F001040194019C9E08B51C29
:10150C00324C54F8255003F00304A4000F27A740D5
:10151C0025EA07072E4DA84211D005F58065A84293
:10152C000FD005F58065A8420DD005F58065A84261
:10153C000BD005F58065A84209D1042508E00025EB
:10154C0006E0012504E0022502E0032500E0052564
:10155C0005FA04F43C4302361C4D45F826401D4C5C
:10156C002568D44305EA04064F6817F4803F01D080
:10157C0042EA0506174D2E606D6804EA05064F68B1
:10158C0017F4003F01D042EA0506124D6E60AD68BB
:10159C0004EA05064F6817F4801F01D042EA0506DD
:1015AC000C4DAE60ED682C404E6816F4001F01D057
:1015BC0042EA0504074AD46001330A6832FA03F49C
:1015CC007FF444AF03B0F0BD00380240000001408E
:1015DC0000000240000401400369194201D00120BF
:1015EC0070470020704700BF0AB181617047090441
:1015FC008161704708B590F82130DBB2022B03D023
:10160C0004238363012008BD0268136823F00E03D2
:10161C0013600268136823F001031360C16B036C41
:10162C0003F01C03012202FA03F34B6080F8212023
:10163C00002380F82030436B13B19847002008BD7D
:10164C00002008BD074AD36823F4E0631B041B0C7D
:10165C00000200F4E060184340F0BF6040F400303A
:10166C00D060704700ED00E030B4164BDB68C3F37C
:10167C000223C3F10704042C28BF04241D1D062DCE
:10168C0001D9DD1E00E00025012303FA04F4013C1E
:10169C002140A940AB40013B1A400A43002808DB1B
:1016AC001201D2B200F1604000F5614080F80023D5
:1016BC0005E000F00F001201D2B2034B1A5430BCFB
:1016CC00704700BF00ED00E014ED00E0002808DBDF
:1016DC00420900F01F00012303FA00F0014B43F80C
:1016EC002200704700E100E00138B0F1807F0AD29F
:1016FC00064B5860F021064A82F8231000209860AF
:10170C0007221A6070470120704700BF10E000E00C
:10171C0000ED00E00E4B1A6842F480721A60996872
:10172C000C4A0A409A601A6822F0885222F0011280
:10173C001A601A6822F480221A609A6822F47D02D8
:10174C009A600022DA604FF00062034B9A60704797
:10175C00003802400CC0FF8800ED00E0F0B589B005
:10176C00002403940494059406940794284BDA6996
:10177C0042F00402DA61DA6902F004020092009A83
:10178C00DA6942F00102DA61DA6902F001020192CF
:10179C00019ADA6942F00202DA61DB6903F00203B2
:1017AC000293029B1B4F012240F203113846FFF7B4
:1017BC001BFF194D01224FF490512846FFF714FFDF
:1017CC004FF4005303930494059403A91348FFF7B3
:1017DC0039FE40F2031303930126049605940694F4
:1017EC0003A93846FFF72EFE472303930494059470
:1017FC0003A92846FFF726FE4FF490530393049653
:10180C000594069403A92846FFF71CFE09B0F0BD09
:10181C000038024000000240000402400008024070
:10182C0008B50D480D4B03604FF4827343600023E1
:10183C008360C360036143614FF480228261102294
:10184C00C2610362436283620A23C362FEF7F2FD44
:10185C0008B1FEF73BFD08BDA000002000300140A0
:10186C0070B588B0002303930493059306930793F4
:10187C0002681D4B9A4234D103F584331A6A42F440
:10188C0080521A621A6A02F480520092009ADA6943
:10189C0042F00102DA61DA6902F001020192019A66
:1018AC00DA6942F00202DA61DB6903F002030293A7
:1018BC00029B4FF4004303930226049603250695DE
:1018CC000524079403A90948FFF7BCFD38230393AB
:1018DC000496002305930695079403A90448FFF783
:1018EC00B1FD08B070BD00BF0030014000000240E7
:1018FC000004024000B587B08DF80F0006AA002343
:10190C0002F8013D4FF6FF73009301230DF10F0117
:10191C000548FEF7C9FD10B99DF8170000E001203D
:10192C0007B05DF804FB00BFA000002008B50A4812
:10193C000A4B03604FF4E133436000238360C360C0
:10194C0003610C2242618361C361FEF7BFFF08B1E2
:10195C00FEF7BCFC08BD00BFF800002000380140B9
:10196C0008B50A480A4B03604FF4E1334360002387
:10197C008360C36003610C2242618361C361FEF723
:10198C00A5FF08B1FEF7A2FC08BD00BF380100207E
:10199C000044004000B58BB00023059306930793D9
:1019AC000893099303682A4A934222D1294B1A6A55
:1019BC0042F480421A621A6A02F480420192019A3D
:1019CC00DA6942F00102DA61DB6903F00103029388
:1019DC00029B4FF4C06305930223069301230793E4
:1019EC00032308930723099305A91B48FFF72AFD36
:1019FC002BE01A4A934228D1164B5A6A42F4003211
:101A0C005A625A6A02F400320392039ADA6942F07B
:101A1C000102DA61DB6903F001030493049B0C23DC
:101A2C0005930223069301230793032308930723AB
:101A3C00099305A90848FFF705FD00221146262049
:101A4C00FFF712FE2620FFF741FE0BB05DF804FBFA
:101A5C0000380140003802400000024000440040C1
:101A6C0070B504460E46154600224FF400410C4852
:101A7C00FFF7BAFD04F07F00FFF73CFF002405E000
:101A8C000020FFF737FF30550134E4B2AC42F7D3F6
:101A9C0001224FF400410248FFF7A6FD70BD00BFC4
:101AAC000000024008B50122FFF7DAFF08BD00BFB5
:101ABC0008B54FF400510248FFF78EFD08BD00BF7A
:101ACC0000080240002103E00B4B5B5843500431EB
:101ADC000A480B4B42189A42F6D30A4A02E00023FA
:101AEC0042F8043B084B9A42F9D3FFF713FE00F07F
:101AFC000FF8FEF777FB70473C2C00080000002025
:101B0C0070000020700000207C010020FEE7000027
:101B1C000E4B70B51E460E4C0025E41AA410A542BF
:101B2C0004D056F8253098470135F8E700F0C0FF8F
:101B3C00084B094C1E46E41AA4100025A54204D0FB
:101B4C0056F8253098470135F8E770BD342C00085D
:101B5C00342C0008342C0008382C000803460244AE
:101B6C00934202D003F8011BFAE770470FB40A4BFB
:101B7C0013B51C6824B1A36913B9204600F022FAEE
:101B8C0005AB049AA1682046019300F0D7FB02B084
:101B9C00BDE8104004B070476C00002070B50E46D4
:101BAC00054618B183690BB900F00CFAAB69AC6847
:101BBC0013B9284600F006FA224B9C4201D16C68FE
:101BCC0008E0214B9C4201D1AC6803E01F4B9C42C6
:101BDC0008BFEC68A3891B0701D523693BB92146D3
:101BEC00284600F091F810B14FF0FF3070BD013E67
:101BFC00A36816F8011F013BA36091B1002B04DA16
:101C0C00A269934206DB0A2904D023685A1C22607D
:101C1C001970EDE72246284600F022F80130E7D192
:101C2C00E2E7002B08DA22460A21284600F018F8D1
:101C3C000130D9D00A2070BD23680A205A1C2260BA
:101C4C00187070BDA02B0008C02B0008E02B0008FA
:101C5C00024B01461868FFF7A1BF00BF6C000020C3
:101C6C00F8B50F461446054618B183690BB900F058
:101C7C00A9F9224B9C4201D16C6808E0204B9C4294
:101C8C0001D1AC6803E01F4B9C4208BFEC68A36910
:101C9C00A360A3891A0709D523693BB1236820697E
:101CAC00FEB2181A636998420FDB08E021462846F9
:101CBC0000F02AF80028F1D04FF0FF361BE0214647
:101CCC00284600F015F90028F6D1A3680130013B35
:101CDC00A36023685A1C22601F706369984204D069
:101CEC00A389DB0707D50A2E05D12146284600F02B
:101CFC00FFF80028E0D13046F8BD00BFA02B00084B
:101D0C00C02B0008E02B0008324B70B51D6806464E
:101D1C000C4625B1AB6913B9284600F053F92E4B8C
:101D2C009C4201D16C6808E02C4B9C4201D1AC6800
:101D3C0003E02B4B9C4208BFEC68B4F90C309AB210
:101D4C0015071DD4D00602D4092232603AE051079F
:101D5C0012D5616B41B104F14403994202D0304673
:101D6C0000F01AFA00236363A38923F02403A381F0
:101D7C000023636023692360A38943F00803A381D4
:101D8C0023694BB9A38903F42073B3F5007F03D007
:101D9C002146304600F0C4F9A28912F0010305D0A7
:101DAC000023A36063695B42A36103E0920758BF01
:101DBC006369A36023695BB9B4F90C3003F080004C
:101DCC0080B230B143F04003A3814FF0FF3070BDBF
:101DDC00002070BD6C000020A02B0008C02B000858
:101DEC00E02B00088A892DE9F041054610070C46C6
:101DFC0059D44B68002B02DC0B6C002B17DDE66A08
:101E0C00AEB102F48052002392B22F682B600AB15B
:101E1C00606D15E0216A01232846B047411C0FD1A3
:101E2C002B686BB11D2B01D0162B03D12F6000201A
:101E3C00BDE8F081A38943F04003A381BDE8F081A4
:101E4C00A3895A0705D56368C01A636B0BB1236C61
:101E5C00C01A00230246E66A216A2846B047431C92
:101E6C00A38906D129681D2939D8204ACA40D6072A
:101E7C0035D5002262602269D904226004D5421C47
:101E8C0001D12B6803B96065616B2F600029CED03E
:101E9C0004F14403994202D0284600F07DF9002059
:101EAC006063BDE8F0810F69002FC0D093070E6806
:101EBC000CBF4B690023C7EB06080F608B6002E078
:101ECC000744C0EB0808B8F1000FB0DD43463A46B2
:101EDC00216A2846A66AB0470028F1DCA38943F0A2
:101EEC004003A3814FF0FF30BDE8F081010040209A
:101EFC0038B50B6905460C46DBB118B183690BB9D3
:101F0C0000F060F80C4B9C4201D16C6808E00B4B64
:101F1C009C4201D1AC6803E0094B9C4208BFEC68C1
:101F2C00B4F90C302BB121462846BDE83840FFF7F8
:101F3C0059BF002038BD00BFA02B0008C02B0008E3
:101F4C00E02B0008014900F0A9B800BFFD1E0008F5
:101F5C0010B50446002303604360836081814366AF
:101F6C00C281036143618361194608225C30FFF72B
:101F7C00F5FD054B24626362044BA362044BE362E0
:101F8C00044B236310BD00BFD9280008FB280008B0
:101F9C00332900085729000870B568234D1E5D438E
:101FAC000E4605F1740100F043F9044640B10021DE
:101FBC0080E842000C30A06005F16802FFF7CEFD0E
:101FCC00204670BD836910B5044633BB8364C3647B
:101FDC000365124B124A1B688262984204BF0123AC
:101FEC00836100F01FF86060204600F01BF8A060D1
:101FFC00204600F017F80022E06004216068FFF72B
:10200C00A7FF01220921A068FFF7A2FF02221221DB
:10201C00E068FFF79DFF0123A36110BD9C2B000816
:10202C00511F0008F8B51C4B07461E68B36913B95D
:10203C003046FFF7C7FF4836B4687368013B04D4D9
:10204C00B4F90C507DB16834F8E733680BB13668DD
:10205C00F2E704213846FFF79FFF30600028F6D1E5
:10206C000C233B60F8BD4FF6FF73E3810123A38182
:10207C0065662560A560656025616561A5610822BE
:10208C00294604F15C00FFF769FD6563A563A5644F
:10209C00E5642046F8BD00BF9C2B00082DE9F843F1
:1020AC008046894600F14804002694B1A56867680B
:1020BC00013F0CD4AB89012B07D9B5F90E30013394
:1020CC0003D029464046C84706436835F0E72468E4
:1020DC00EBE73046BDE8F88370B50E46B1F90E104B
:1020EC0090B0002914461D4606DA00232B60B389F4
:1020FC001A060ED540230EE001AA00F04DFC002874
:10210C00F3DB029A02F47042A2F500535A425A4190
:10211C002A604FF480630020236010B070BD000073
:10212C008B8973B59E0705460C4610D401AB6A46E5
:10213C00FFF7D2FF00990646284600F079F868B9F7
:10214C00B4F90C309A0522D443F00203A38104F1B4
:10215C004703236023610123636118E00D4BAB62DD
:10216C00A389206043F08003A381009B20616361FD
:10217C00019B4BB1B4F90E10284600F01FFC18B1AE
:10218C00A38943F00103A381A0893043A08102B04D
:10219C0070BD00BF511F000838B50546002944D05A
:1021AC0051F8043C0C1F002BB8BFE41800F036FCAF
:1021BC001E4A1368114613B96360146030E0A342E1
:1021CC000DD92268A018834201BF18685B681218E9
:1021DC00226063600C6023E0A24203D813465A6865
:1021EC00002AF9D118681918A1420BD121680144B1
:1021FC0058188242196013D1106852680144196052
:10220C005A600DE002D90C232B6009E0216860189C
:10221C00824201BF106852680918216062605C60DC
:10222C002846BDE8384000F0FABB38BD94000020C9
:10223C0070B5CD1C25F0030508350C2D38BF0C25C9
:10224C00002D064601DBA94202D90C23336046E07F
:10225C0000F0E4FB234B1C681A462146A1B10B6825
:10226C005B1B0ED40B2B03D90B60CC18CD501EE08E
:10227C008C420BBF63684B681360636018BF0C46DD
:10228C0015E00C464968E9E7174C23681BB9304642
:10229C0000F00CFB20602946304600F007FB431C85
:1022AC0018D0C41C24F00304A0420DD12560304684
:1022BC0000F0B5FB04F10B00231D20F00700C31A3E
:1022CC000ED05A42E25070BD211A304600F0EEFAA0
:1022DC000130EBD10C233360304600F0A0FB002022
:1022EC0070BD00BF9400002090000020936810B4D3
:1022FC00013B002B936008DA9469A34202DBCBB25A
:10230C000A2B02D110BCFFF7ABBC1368581C106031
:10231C001970C8B210BC7047F8B506460F46144683
:10232C00D518AC4208D03A4614F8011B3046FFF7DA
:10233C00DDFF431CF5D100E00020F8BD2DE9F04F86
:10234C009DB00C4617460393064618B183690BB92A
:10235C00FFF738FE7F4B9C4201D1746808E07E4B3E
:10236C009C4201D1B46803E07C4B9C4208BFF468EA
:10237C00A38918070CD5236953B100230993202393
:10238C008DF8293030238DF82A30DFF8D4B144E0B1
:10239C0021463046FFF7B8FC0028EED04FF0FF3056
:1023AC00D5E0039A111D12680391002A80F28C80EB
:1023BC00524243F002000792049098F800302E2B02
:1023CC0000F08480032298F80010654800F018FB98
:1023DC0048B14023CBEB000003FA00F0049B08F15A
:1023EC0001081843049098F8001006225D4808F183
:1023FC0001078DF8281000F003FB002800F09580F1
:10240C00594B002B40F08880039B073323F00703C4
:10241C0008330393099B53440993B846454615F872
:10242C00013B1BB9B8EB07090FD003E0252BF9D002
:10243C00A846F3E74B463A4621463046FFF76CFF79
:10244C0001307FD0099B4B44099398F80030002B46
:10245C0078D000234FF0FF32049307930592069334
:10246C008DF853301A930127052229783F4800F044
:10247C00C7FA05F10108049B38B13C4A4546801A5D
:10248C0007FA00F018430490EEE7D90644BF202267
:10249C008DF853201A0744BF2B228DF853202A782D
:1024AC002A2A3FF47EAF079A00210A20A84698F802
:1024BC0000300135303B092B03D800FB02320121DF
:1024CC00F4E700293FF479AF079276E798F80130EA
:1024DC002A2B0BD1039B08F102081A1D1B680392CF
:1024EC00002BB8BF4FF0FF3305936BE70023194661
:1024FC00059308F101000A25804698F80020013068
:10250C00303A092A03D805FB01210123F4E7002BFB
:10251C003FF458AF059155E703AB00932246144B9B
:10252C0004A93046AFF3008007E003AB00932246CA
:10253C000F4B04A9304600F093F8B0F1FF3F8246F0
:10254C007FF468AFA3895B063FF528AF09981DB0EF
:10255C00BDE8F08FA02B0008C02B0008E02B000872
:10256C00062C00080A2C000800000000002C0008B3
:10257C00252300082DE9F04791461F460A698B6810
:10258C0006469342B8BF1346C9F8003091F8432071
:10259C000C46DDF8208012B10133C9F800302368F5
:1025AC00990642BFD9F800300233C9F800302568CB
:1025BC0015F0060510D104F1190A07E00123524663
:1025CC0039463046C04701301AD00135E368D9F896
:1025DC0000209B1A9D42F1DB94F8433022680033B3
:1025EC0018BF012392060FD5E118302081F8430063
:1025FC005A1C94F845102244023382F8431003E02D
:10260C004FF0FF30BDE8F08704F143023946304605
:10261C00C0470130F4D02268D9F80050E36802F0CA
:10262C000602042A08BF5D1B2269A3680CBF25EAB9
:10263C00E57500259342C4BF9B1AED184FF00009B5
:10264C001A344D4509D00123224639463046C0473D
:10265C000130D5D009F10109F3E70020BDE8F0877E
:10266C002DE9F04317460A7E85B06E2A9846064639
:10267C000C460C9B01F1430E00F0AE8011D8632A7E
:10268C0022D009D8002A00F0BB80582A40F0CA801A
:10269C0081F84520834955E0642A1ED0692A1CD054
:1026AC00C0E0732A00F0B08009D86F2A2ED0702AAF
:1026BC0040F0B8800A6842F020020A603EE0752AB9
:1026CC0024D0782A3AD0ADE01A6801F14205111DE8
:1026DC001960136884F84230A8E021681A6811F078
:1026EC00800F02D0111D196008E011F0400F02F1AB
:1026FC000401196002D0B2F9003000E01368002B1D
:10270C003CDA2D225B4284F8432037E021681A68BA
:10271C0011F0800F02D0111D196007E011F0400F6D
:10272C0002F10401196001D0138800E01368227EC5
:10273C005C496F2A14BF0A2208221BE078225A49EE
:10274C0084F845202268186812F0800F00F1040507
:10275C001D6003D1550601D5038800E00368D0073E
:10276C0044BF42F0200222601BB9226822F02002F2
:10277C0022601022002084F8430001E049490A221B
:10278C006568002DA56008DB206820F0040020603F
:10279C002BB9002D7DD175460CE0002B79D07546F8
:1027AC00B3FBF2F002FB1033CB5C05F8013D0346A2
:1027BC000028F5D1082A0BD12368DA0708D523693C
:1027CC0062689A42DEBF302305F8013C05F1FF3503
:1027DC00C5EB0E0323612EE008681A6810F0800F19
:1027EC00496903D0101D1860136808E010F0400F01
:1027FC0002F104001860136801D0198000E0196020
:10280C0000232361754616E01A68111D19601568BE
:10281C0000216268284600F0F3F808B1401B6060A4
:10282C00636804E004F1420584F84220012323612B
:10283C00002384F84330CDF800803B4603AA2146A0
:10284C003046FFF797FE013002D14FF0FF3026E003
:10285C0023692A4639463046C0470130F5D02368F3
:10286C009B0710D5002504F1190907E001234A46FE
:10287C0039463046C0470130E7D00135E368039A4A
:10288C009B1A9D42F2DBE068039B9842B8BF184646
:10289C0005E00B7804F1420584F842308AE705B074
:1028AC00BDE8F083112C0008222C000838B5064C2A
:1028BC00002305460846236000F0ECF8431C02D1C7
:1028CC00236803B12B6038BD7801002010B50C468D
:1028DC00B1F90E1000F0A4F80028ABBF636DA3890A
:1028EC001B1823F48053ACBF6365A38110BD2DE985
:1028FC00F0411F468B890546DB050C46164605D56F
:10290C0002230022B1F90E1000F068F8A3893246B8
:10291C0023F48053A381B4F90E103B462846BDE83E
:10292C00F04100F017B810B50C46B1F90E1000F0DC
:10293C0055F8431CA38915BF606523F4805343F4F9
:10294C008053A38118BFA38110BDB1F90E1000F004
:10295C0013B8000038B5074C05460846114600224E
:10296C0022601A46FDF79EFC431C02D1236803B17A
:10297C002B6038BD7801002038B5064C0023054685
:10298C000846236000F05EF8431C02D1236803B1B3
:10299C002B6038BD7801002038B5074C0023054664
:1029AC0008461146236000F055F8431C02D12368F9
:1029BC0003B12B6038BD00BF7801002038B5064C40
:1029CC00002305460846236000F04CF8431C02D156
:1029DC00236803B12B6038BD7801002038B5074C53
:1029EC00054608461146002222601A4600F042F8BD
:1029FC00431C02D1236803B12B6038BD7801002041
:102A0C0010B5C9B202449042034605D01C7801307F
:102A1C008C42F8D1184610BD002010BD704770478D
:102A2C0038B5074C054608461146002222601A4666
:102A3C0000F028F8431C02D1236803B12B6038BD89
:102A4C0078010020024B58221A604FF0FF3070477B
:102A5C0078010020024B58221A604FF0FF3070476B
:102A6C0078010020024B58221A600020704700BFEA
:102A7C0078010020024B58221A604FF0FF3070474B
:102A8C0078010020024B58221A604FF0FF3070473B
:102A9C0078010020044A05491368002B08BF0B4637
:102AAC0018441060184670479800002080010020E0
:102ABC00F8B500BFF8BC08BC9E467047F8B500BF1F
:082ACC00F8BC08BC9E467047EF
:102AD4006765742052656756657273696F6E206509
:102AE40072726F722C2052656756657273696F6ECD
:102AF400203D202523780D0A00000000676574201E
:102B040052656756657273696F6E2073756363658A
:102B140073732C2052656756657273696F6E203D1E
:102B2400202523780D0A0000535831323736526578
:102B3400616444696F303A2D2D2025642D2D0D0AD2
:102B440000000000446561722C20476F6F64206DA3
:102B54006F726E696E67EFBC810D0000E788B1E4A7
:102B6400BDA0E593A6EFBD9E0A6D7561EFBD9E0DF8
:102B74000000000000000000000000000102030447
:102B84000607080900000000010203040304060804
:102B94000C101820300000000C0000200000000081
:102BA4000000000000000000000000000000000021
:102BB4000000000000000000000000000000000011
:102BC4000000000000000000000000000000000001
:102BD40000000000000000000000000000000000F1
:102BE40000000000000000000000000000000000E1
:102BF400000000000000000000000000232D302B26
:102C04002000686C4C0065666745464700303132E9
:102C14003334353637383941424344454600303140
:102C2400323334353637383961626364656600009F
:042C34006101000832
:042C38003D01000852
:102C3C00100000000100000068FF1F0000000000F1
:102C4C00A02B0008C02B0008E02B0008000000009F
:102C5C000000000000000000000000000000000068
:102C6C000000000000000000000000000000000058
:102C7C000000000000000000000000000000000048
:102C8C000000000000000000000000000000000038
:102C9C000000000000000000000000000C000020FC
:0400000508001AD104
:00000001FF
